{
  "_format": "hh-sol-artifact-1",
  "contractName": "ZkVerification",
  "sourceName": "contracts/zkverification.sol",
  "abi": [
    {
      "inputs": [
        {
          "internalType": "address",
          "name": "_zkvContract",
          "type": "address"
        },
        {
          "internalType": "bytes32",
          "name": "_vkey",
          "type": "bytes32"
        },
        {
          "internalType": "bytes32",
          "name": "_vhash",
          "type": "bytes32"
        },
        {
          "internalType": "string",
          "name": "tokenURI_",
          "type": "string"
        }
      ],
      "stateMutability": "nonpayable",
      "type": "constructor"
    },
    {
      "inputs": [
        {
          "internalType": "address",
          "name": "sender",
          "type": "address"
        },
        {
          "internalType": "uint256",
          "name": "tokenId",
          "type": "uint256"
        },
        {
          "internalType": "address",
          "name": "owner",
          "type": "address"
        }
      ],
      "name": "ERC721IncorrectOwner",
      "type": "error"
    },
    {
      "inputs": [
        {
          "internalType": "address",
          "name": "operator",
          "type": "address"
        },
        {
          "internalType": "uint256",
          "name": "tokenId",
          "type": "uint256"
        }
      ],
      "name": "ERC721InsufficientApproval",
      "type": "error"
    },
    {
      "inputs": [
        {
          "internalType": "address",
          "name": "approver",
          "type": "address"
        }
      ],
      "name": "ERC721InvalidApprover",
      "type": "error"
    },
    {
      "inputs": [
        {
          "internalType": "address",
          "name": "operator",
          "type": "address"
        }
      ],
      "name": "ERC721InvalidOperator",
      "type": "error"
    },
    {
      "inputs": [
        {
          "internalType": "address",
          "name": "owner",
          "type": "address"
        }
      ],
      "name": "ERC721InvalidOwner",
      "type": "error"
    },
    {
      "inputs": [
        {
          "internalType": "address",
          "name": "receiver",
          "type": "address"
        }
      ],
      "name": "ERC721InvalidReceiver",
      "type": "error"
    },
    {
      "inputs": [
        {
          "internalType": "address",
          "name": "sender",
          "type": "address"
        }
      ],
      "name": "ERC721InvalidSender",
      "type": "error"
    },
    {
      "inputs": [
        {
          "internalType": "uint256",
          "name": "tokenId",
          "type": "uint256"
        }
      ],
      "name": "ERC721NonexistentToken",
      "type": "error"
    },
    {
      "anonymous": false,
      "inputs": [
        {
          "indexed": true,
          "internalType": "address",
          "name": "owner",
          "type": "address"
        },
        {
          "indexed": true,
          "internalType": "address",
          "name": "approved",
          "type": "address"
        },
        {
          "indexed": true,
          "internalType": "uint256",
          "name": "tokenId",
          "type": "uint256"
        }
      ],
      "name": "Approval",
      "type": "event"
    },
    {
      "anonymous": false,
      "inputs": [
        {
          "indexed": true,
          "internalType": "address",
          "name": "owner",
          "type": "address"
        },
        {
          "indexed": true,
          "internalType": "address",
          "name": "operator",
          "type": "address"
        },
        {
          "indexed": false,
          "internalType": "bool",
          "name": "approved",
          "type": "bool"
        }
      ],
      "name": "ApprovalForAll",
      "type": "event"
    },
    {
      "anonymous": false,
      "inputs": [
        {
          "indexed": false,
          "internalType": "uint256",
          "name": "_fromTokenId",
          "type": "uint256"
        },
        {
          "indexed": false,
          "internalType": "uint256",
          "name": "_toTokenId",
          "type": "uint256"
        }
      ],
      "name": "BatchMetadataUpdate",
      "type": "event"
    },
    {
      "anonymous": false,
      "inputs": [
        {
          "indexed": false,
          "internalType": "uint256",
          "name": "_tokenId",
          "type": "uint256"
        }
      ],
      "name": "MetadataUpdate",
      "type": "event"
    },
    {
      "anonymous": false,
      "inputs": [
        {
          "indexed": true,
          "internalType": "address",
          "name": "minter",
          "type": "address"
        },
        {
          "indexed": false,
          "internalType": "uint256",
          "name": "tokenId",
          "type": "uint256"
        }
      ],
      "name": "NFTMinted",
      "type": "event"
    },
    {
      "anonymous": false,
      "inputs": [
        {
          "indexed": true,
          "internalType": "address",
          "name": "from",
          "type": "address"
        },
        {
          "indexed": true,
          "internalType": "address",
          "name": "to",
          "type": "address"
        },
        {
          "indexed": true,
          "internalType": "uint256",
          "name": "tokenId",
          "type": "uint256"
        }
      ],
      "name": "Transfer",
      "type": "event"
    },
    {
      "inputs": [],
      "name": "PROVING_SYSTEM_ID",
      "outputs": [
        {
          "internalType": "bytes32",
          "name": "",
          "type": "bytes32"
        }
      ],
      "stateMutability": "view",
      "type": "function"
    },
    {
      "inputs": [
        {
          "internalType": "address",
          "name": "to",
          "type": "address"
        },
        {
          "internalType": "uint256",
          "name": "tokenId",
          "type": "uint256"
        }
      ],
      "name": "approve",
      "outputs": [],
      "stateMutability": "nonpayable",
      "type": "function"
    },
    {
      "inputs": [
        {
          "internalType": "address",
          "name": "owner",
          "type": "address"
        }
      ],
      "name": "balanceOf",
      "outputs": [
        {
          "internalType": "uint256",
          "name": "",
          "type": "uint256"
        }
      ],
      "stateMutability": "view",
      "type": "function"
    },
    {
      "inputs": [
        {
          "internalType": "bytes",
          "name": "_hash",
          "type": "bytes"
        },
        {
          "internalType": "uint256",
          "name": "attestationId",
          "type": "uint256"
        },
        {
          "internalType": "bytes32[]",
          "name": "merklePath",
          "type": "bytes32[]"
        },
        {
          "internalType": "uint256",
          "name": "leafCount",
          "type": "uint256"
        },
        {
          "internalType": "uint256",
          "name": "index",
          "type": "uint256"
        }
      ],
      "name": "checkHash",
      "outputs": [],
      "stateMutability": "nonpayable",
      "type": "function"
    },
    {
      "inputs": [
        {
          "internalType": "uint256",
          "name": "tokenId",
          "type": "uint256"
        }
      ],
      "name": "getApproved",
      "outputs": [
        {
          "internalType": "address",
          "name": "",
          "type": "address"
        }
      ],
      "stateMutability": "view",
      "type": "function"
    },
    {
      "inputs": [
        {
          "internalType": "address",
          "name": "",
          "type": "address"
        }
      ],
      "name": "hasSubmittedValidProof",
      "outputs": [
        {
          "internalType": "bool",
          "name": "",
          "type": "bool"
        }
      ],
      "stateMutability": "view",
      "type": "function"
    },
    {
      "inputs": [
        {
          "internalType": "address",
          "name": "owner",
          "type": "address"
        },
        {
          "internalType": "address",
          "name": "operator",
          "type": "address"
        }
      ],
      "name": "isApprovedForAll",
      "outputs": [
        {
          "internalType": "bool",
          "name": "",
          "type": "bool"
        }
      ],
      "stateMutability": "view",
      "type": "function"
    },
    {
      "inputs": [],
      "name": "name",
      "outputs": [
        {
          "internalType": "string",
          "name": "",
          "type": "string"
        }
      ],
      "stateMutability": "view",
      "type": "function"
    },
    {
      "inputs": [
        {
          "internalType": "uint256",
          "name": "tokenId",
          "type": "uint256"
        }
      ],
      "name": "ownerOf",
      "outputs": [
        {
          "internalType": "address",
          "name": "",
          "type": "address"
        }
      ],
      "stateMutability": "view",
      "type": "function"
    },
    {
      "inputs": [
        {
          "internalType": "address",
          "name": "from",
          "type": "address"
        },
        {
          "internalType": "address",
          "name": "to",
          "type": "address"
        },
        {
          "internalType": "uint256",
          "name": "tokenId",
          "type": "uint256"
        }
      ],
      "name": "safeTransferFrom",
      "outputs": [],
      "stateMutability": "nonpayable",
      "type": "function"
    },
    {
      "inputs": [
        {
          "internalType": "address",
          "name": "from",
          "type": "address"
        },
        {
          "internalType": "address",
          "name": "to",
          "type": "address"
        },
        {
          "internalType": "uint256",
          "name": "tokenId",
          "type": "uint256"
        },
        {
          "internalType": "bytes",
          "name": "data",
          "type": "bytes"
        }
      ],
      "name": "safeTransferFrom",
      "outputs": [],
      "stateMutability": "nonpayable",
      "type": "function"
    },
    {
      "inputs": [
        {
          "internalType": "address",
          "name": "operator",
          "type": "address"
        },
        {
          "internalType": "bool",
          "name": "approved",
          "type": "bool"
        }
      ],
      "name": "setApprovalForAll",
      "outputs": [],
      "stateMutability": "nonpayable",
      "type": "function"
    },
    {
      "inputs": [
        {
          "internalType": "bytes4",
          "name": "interfaceId",
          "type": "bytes4"
        }
      ],
      "name": "supportsInterface",
      "outputs": [
        {
          "internalType": "bool",
          "name": "",
          "type": "bool"
        }
      ],
      "stateMutability": "view",
      "type": "function"
    },
    {
      "inputs": [],
      "name": "symbol",
      "outputs": [
        {
          "internalType": "string",
          "name": "",
          "type": "string"
        }
      ],
      "stateMutability": "view",
      "type": "function"
    },
    {
      "inputs": [
        {
          "internalType": "uint256",
          "name": "tokenId",
          "type": "uint256"
        }
      ],
      "name": "tokenURI",
      "outputs": [
        {
          "internalType": "string",
          "name": "",
          "type": "string"
        }
      ],
      "stateMutability": "view",
      "type": "function"
    },
    {
      "inputs": [
        {
          "internalType": "address",
          "name": "from",
          "type": "address"
        },
        {
          "internalType": "address",
          "name": "to",
          "type": "address"
        },
        {
          "internalType": "uint256",
          "name": "tokenId",
          "type": "uint256"
        }
      ],
      "name": "transferFrom",
      "outputs": [],
      "stateMutability": "nonpayable",
      "type": "function"
    },
    {
      "inputs": [],
      "name": "vhash",
      "outputs": [
        {
          "internalType": "bytes32",
          "name": "",
          "type": "bytes32"
        }
      ],
      "stateMutability": "view",
      "type": "function"
    },
    {
      "inputs": [],
      "name": "vkey",
      "outputs": [
        {
          "internalType": "bytes32",
          "name": "",
          "type": "bytes32"
        }
      ],
      "stateMutability": "view",
      "type": "function"
    },
    {
      "inputs": [],
      "name": "zkvContract",
      "outputs": [
        {
          "internalType": "address",
          "name": "",
          "type": "address"
        }
      ],
      "stateMutability": "view",
      "type": "function"
    }
  ],
  "bytecode": "0x60a06040523480156200001157600080fd5b50604051620033763803806200337683398181016040528101906200003791906200035a565b6040518060400160405280600781526020017f4d6574614e4654000000000000000000000000000000000000000000000000008152506040518060400160405280600481526020017f4d4e4654000000000000000000000000000000000000000000000000000000008152508160009081620000b4919062000636565b508060019081620000c6919062000636565b5050508373ffffffffffffffffffffffffffffffffffffffff1660808173ffffffffffffffffffffffffffffffffffffffff1681525050826007819055508160088190555080600a90816200011c919062000636565b50505050506200071d565b6000604051905090565b600080fd5b600080fd5b600073ffffffffffffffffffffffffffffffffffffffff82169050919050565b600062000168826200013b565b9050919050565b6200017a816200015b565b81146200018657600080fd5b50565b6000815190506200019a816200016f565b92915050565b6000819050919050565b620001b581620001a0565b8114620001c157600080fd5b50565b600081519050620001d581620001aa565b92915050565b600080fd5b600080fd5b6000601f19601f8301169050919050565b7f4e487b7100000000000000000000000000000000000000000000000000000000600052604160045260246000fd5b6200023082620001e5565b810181811067ffffffffffffffff82111715620002525762000251620001f6565b5b80604052505050565b60006200026762000127565b905062000275828262000225565b919050565b600067ffffffffffffffff821115620002985762000297620001f6565b5b620002a382620001e5565b9050602081019050919050565b60005b83811015620002d0578082015181840152602081019050620002b3565b60008484015250505050565b6000620002f3620002ed846200027a565b6200025b565b905082815260208101848484011115620003125762000311620001e0565b5b6200031f848285620002b0565b509392505050565b600082601f8301126200033f576200033e620001db565b5b815162000351848260208601620002dc565b91505092915050565b6000806000806080858703121562000377576200037662000131565b5b6000620003878782880162000189565b94505060206200039a87828801620001c4565b9350506040620003ad87828801620001c4565b925050606085015167ffffffffffffffff811115620003d157620003d062000136565b5b620003df8782880162000327565b91505092959194509250565b600081519050919050565b7f4e487b7100000000000000000000000000000000000000000000000000000000600052602260045260246000fd5b600060028204905060018216806200043e57607f821691505b602082108103620004545762000453620003f6565b5b50919050565b60008190508160005260206000209050919050565b60006020601f8301049050919050565b600082821b905092915050565b600060088302620004be7fffffffffffffffffffffffffffffffffffffffffffffffffffffffffffffffff826200047f565b620004ca86836200047f565b95508019841693508086168417925050509392505050565b6000819050919050565b6000819050919050565b600062000517620005116200050b84620004e2565b620004ec565b620004e2565b9050919050565b6000819050919050565b6200053383620004f6565b6200054b62000542826200051e565b8484546200048c565b825550505050565b600090565b6200056262000553565b6200056f81848462000528565b505050565b5b8181101562000597576200058b60008262000558565b60018101905062000575565b5050565b601f821115620005e657620005b0816200045a565b620005bb846200046f565b81016020851015620005cb578190505b620005e3620005da856200046f565b83018262000574565b50505b505050565b600082821c905092915050565b60006200060b60001984600802620005eb565b1980831691505092915050565b6000620006268383620005f8565b9150826002028217905092915050565b6200064182620003eb565b67ffffffffffffffff8111156200065d576200065c620001f6565b5b62000669825462000425565b620006768282856200059b565b600060209050601f831160018114620006ae576000841562000699578287015190505b620006a5858262000618565b86555062000715565b601f198416620006be866200045a565b60005b82811015620006e857848901518255600182019150602085019450602081019050620006c1565b8683101562000708578489015162000704601f891682620005f8565b8355505b6001600288020188555050505b505050505050565b608051612c36620007406000396000818161070d0152610ee70152612c366000f3fe608060405234801561001057600080fd5b50600436106101215760003560e01c806375e51645116100ad578063a8898a2011610071578063a8898a201461031a578063b88d4fde14610338578063c69b0eb114610354578063c87b56dd14610372578063e985e9c5146103a257610121565b806375e51645146102765780637ee68373146102a65780638976f7c4146102c457806395d89b41146102e0578063a22cb465146102fe57610121565b80630cebee66116100f45780630cebee66146101c057806323b872dd146101de57806342842e0e146101fa5780636352211e1461021657806370a082311461024657610121565b806301ffc9a71461012657806306fdde0314610156578063081812fc14610174578063095ea7b3146101a4575b600080fd5b610140600480360381019061013b9190611d2d565b6103d2565b60405161014d9190611d75565b60405180910390f35b61015e610433565b60405161016b9190611e20565b60405180910390f35b61018e60048036038101906101899190611e78565b6104c5565b60405161019b9190611ee6565b60405180910390f35b6101be60048036038101906101b99190611f2d565b6104e1565b005b6101c86104f7565b6040516101d59190611f86565b60405180910390f35b6101f860048036038101906101f39190611fa1565b6104fd565b005b610214600480360381019061020f9190611fa1565b6105ff565b005b610230600480360381019061022b9190611e78565b61061f565b60405161023d9190611ee6565b60405180910390f35b610260600480360381019061025b9190611ff4565b610631565b60405161026d9190612030565b60405180910390f35b610290600480360381019061028b9190611ff4565b6106eb565b60405161029d9190611d75565b60405180910390f35b6102ae61070b565b6040516102bb9190611ee6565b60405180910390f35b6102de60048036038101906102d991906121e0565b61072f565b005b6102e86107e5565b6040516102f59190611e20565b60405180910390f35b610318600480360381019061031391906122c2565b610877565b005b61032261088d565b60405161032f9190611f86565b60405180910390f35b610352600480360381019061034d9190612302565b6108b5565b005b61035c6108da565b6040516103699190611f86565b60405180910390f35b61038c60048036038101906103879190611e78565b6108e0565b6040516103999190611e20565b60405180910390f35b6103bc60048036038101906103b79190612385565b6109f3565b6040516103c99190611d75565b60405180910390f35b6000634906490660e01b7bffffffffffffffffffffffffffffffffffffffffffffffffffffffff1916827bffffffffffffffffffffffffffffffffffffffffffffffffffffffff1916148061042c575061042b82610a87565b5b9050919050565b606060008054610442906123f4565b80601f016020809104026020016040519081016040528092919081815260200182805461046e906123f4565b80156104bb5780601f10610490576101008083540402835291602001916104bb565b820191906000526020600020905b81548152906001019060200180831161049e57829003601f168201915b5050505050905090565b60006104d082610b69565b506104da82610bf1565b9050919050565b6104f382826104ee610c2e565b610c36565b5050565b60085481565b600073ffffffffffffffffffffffffffffffffffffffff168273ffffffffffffffffffffffffffffffffffffffff160361056f5760006040517f64a0ae920000000000000000000000000000000000000000000000000000000081526004016105669190611ee6565b60405180910390fd5b6000610583838361057e610c2e565b610c48565b90508373ffffffffffffffffffffffffffffffffffffffff168173ffffffffffffffffffffffffffffffffffffffff16146105f9578382826040517f64283d7b0000000000000000000000000000000000000000000000000000000081526004016105f093929190612425565b60405180910390fd5b50505050565b61061a838383604051806020016040528060008152506108b5565b505050565b600061062a82610b69565b9050919050565b60008073ffffffffffffffffffffffffffffffffffffffff168273ffffffffffffffffffffffffffffffffffffffff16036106a45760006040517f89c62b6400000000000000000000000000000000000000000000000000000000815260040161069b9190611ee6565b60405180910390fd5b600360008373ffffffffffffffffffffffffffffffffffffffff1673ffffffffffffffffffffffffffffffffffffffff168152602001908152602001600020549050919050565b600b6020528060005260406000206000915054906101000a900460ff1681565b7f000000000000000000000000000000000000000000000000000000000000000081565b61073d868686868686610e62565b61077c576040517f08c379a0000000000000000000000000000000000000000000000000000000008152600401610773906124a8565b60405180910390fd5b6001600b60003373ffffffffffffffffffffffffffffffffffffffff1673ffffffffffffffffffffffffffffffffffffffff16815260200190815260200160002060006101000a81548160ff0219169083151502179055506107dd33611069565b505050505050565b6060600180546107f4906123f4565b80601f0160208091040260200160405190810160405280929190818152602001828054610820906123f4565b801561086d5780601f106108425761010080835404028352916020019161086d565b820191906000526020600020905b81548152906001019060200180831161085057829003601f168201915b5050505050905090565b610889610882610c2e565b8383611178565b5050565b60405160200161089c9061251f565b6040516020818303038152906040528051906020012081565b6108c08484846104fd565b6108d46108cb610c2e565b858585856112e7565b50505050565b60075481565b60606108eb82610b69565b50600060066000848152602001908152602001600020805461090c906123f4565b80601f0160208091040260200160405190810160405280929190818152602001828054610938906123f4565b80156109855780601f1061095a57610100808354040283529160200191610985565b820191906000526020600020905b81548152906001019060200180831161096857829003601f168201915b505050505090506000610996611498565b905060008151036109ab5781925050506109ee565b6000825111156109e05780826040516020016109c8929190612565565b604051602081830303815290604052925050506109ee565b6109e9846114af565b925050505b919050565b6000600560008473ffffffffffffffffffffffffffffffffffffffff1673ffffffffffffffffffffffffffffffffffffffff16815260200190815260200160002060008373ffffffffffffffffffffffffffffffffffffffff1673ffffffffffffffffffffffffffffffffffffffff16815260200190815260200160002060009054906101000a900460ff16905092915050565b60007f80ac58cd000000000000000000000000000000000000000000000000000000007bffffffffffffffffffffffffffffffffffffffffffffffffffffffff1916827bffffffffffffffffffffffffffffffffffffffffffffffffffffffff19161480610b5257507f5b5e139f000000000000000000000000000000000000000000000000000000007bffffffffffffffffffffffffffffffffffffffffffffffffffffffff1916827bffffffffffffffffffffffffffffffffffffffffffffffffffffffff1916145b80610b625750610b6182611518565b5b9050919050565b600080610b7583611582565b9050600073ffffffffffffffffffffffffffffffffffffffff168173ffffffffffffffffffffffffffffffffffffffff1603610be857826040517f7e273289000000000000000000000000000000000000000000000000000000008152600401610bdf9190612030565b60405180910390fd5b80915050919050565b60006004600083815260200190815260200160002060009054906101000a900473ffffffffffffffffffffffffffffffffffffffff169050919050565b600033905090565b610c4383838360016115bf565b505050565b600080610c5484611582565b9050600073ffffffffffffffffffffffffffffffffffffffff168373ffffffffffffffffffffffffffffffffffffffff1614610c9657610c95818486611784565b5b600073ffffffffffffffffffffffffffffffffffffffff168173ffffffffffffffffffffffffffffffffffffffff1614610d2757610cd86000856000806115bf565b6001600360008373ffffffffffffffffffffffffffffffffffffffff1673ffffffffffffffffffffffffffffffffffffffff168152602001908152602001600020600082825403925050819055505b600073ffffffffffffffffffffffffffffffffffffffff168573ffffffffffffffffffffffffffffffffffffffff1614610daa576001600360008773ffffffffffffffffffffffffffffffffffffffff1673ffffffffffffffffffffffffffffffffffffffff168152602001908152602001600020600082825401925050819055505b846002600086815260200190815260200160002060006101000a81548173ffffffffffffffffffffffffffffffffffffffff021916908373ffffffffffffffffffffffffffffffffffffffff160217905550838573ffffffffffffffffffffffffffffffffffffffff168273ffffffffffffffffffffffffffffffffffffffff167fddf252ad1be2c89b69c2b068fc378daa952ba7f163c4a11628f55a4df523b3ef60405160405180910390a4809150509392505050565b600080604051602001610e749061251f565b604051602081830303815290604052805190602001206007546008548a604051602001610ea191906125d0565b60405160208183030381529060405280519060200120604051602001610eca9493929190612608565b6040516020818303038152906040528051906020012090506000807f000000000000000000000000000000000000000000000000000000000000000073ffffffffffffffffffffffffffffffffffffffff1689848a8a8a8a604051602401610f37969594939291906126d1565b6040516020818303038152906040527fddea7886000000000000000000000000000000000000000000000000000000007bffffffffffffffffffffffffffffffffffffffffffffffffffffffff19166020820180517bffffffffffffffffffffffffffffffffffffffffffffffffffffffff8381831617835250505050604051610fc191906125d0565b600060405180830381855afa9150503d8060008114610ffc576040519150601f19603f3d011682016040523d82523d6000602084013e611001565b606091505b509150915081611046576040517f08c379a000000000000000000000000000000000000000000000000000000000815260040161103d90612779565b60405180910390fd5b8080602001905181019061105a91906127ae565b93505050509695505050505050565b6009600081548092919061107c9061280a565b9190505550600060095490506110928282611848565b61112681600a80546110a3906123f4565b80601f01602080910402602001604051908101604052809291908181526020018280546110cf906123f4565b801561111c5780601f106110f15761010080835404028352916020019161111c565b820191906000526020600020905b8154815290600101906020018083116110ff57829003601f168201915b5050505050611866565b8173ffffffffffffffffffffffffffffffffffffffff167f4cc0a9c4a99ddc700de1af2c9f916a7cbfdb71f14801ccff94061ad1ef8a80408260405161116c9190612030565b60405180910390a25050565b600073ffffffffffffffffffffffffffffffffffffffff168273ffffffffffffffffffffffffffffffffffffffff16036111e957816040517f5b08ba180000000000000000000000000000000000000000000000000000000081526004016111e09190611ee6565b60405180910390fd5b80600560008573ffffffffffffffffffffffffffffffffffffffff1673ffffffffffffffffffffffffffffffffffffffff16815260200190815260200160002060008473ffffffffffffffffffffffffffffffffffffffff1673ffffffffffffffffffffffffffffffffffffffff16815260200190815260200160002060006101000a81548160ff0219169083151502179055508173ffffffffffffffffffffffffffffffffffffffff168373ffffffffffffffffffffffffffffffffffffffff167f17307eab39ab6107e8899845ad3d59bd9653f200f220920489ca2b5937696c31836040516112da9190611d75565b60405180910390a3505050565b60008373ffffffffffffffffffffffffffffffffffffffff163b1115611491578273ffffffffffffffffffffffffffffffffffffffff1663150b7a02868685856040518563ffffffff1660e01b8152600401611346949392919061289c565b6020604051808303816000875af192505050801561138257506040513d601f19601f8201168201806040525081019061137f91906128fd565b60015b611406573d80600081146113b2576040519150601f19603f3d011682016040523d82523d6000602084013e6113b7565b606091505b5060008151036113fe57836040517f64a0ae920000000000000000000000000000000000000000000000000000000081526004016113f59190611ee6565b60405180910390fd5b805181602001fd5b63150b7a0260e01b7bffffffffffffffffffffffffffffffffffffffffffffffffffffffff1916817bffffffffffffffffffffffffffffffffffffffffffffffffffffffff19161461148f57836040517f64a0ae920000000000000000000000000000000000000000000000000000000081526004016114869190611ee6565b60405180910390fd5b505b5050505050565b606060405180602001604052806000815250905090565b60606114ba82610b69565b5060006114c5611498565b905060008151116114e55760405180602001604052806000815250611510565b806114ef846118c2565b604051602001611500929190612565565b6040516020818303038152906040525b915050919050565b60007f01ffc9a7000000000000000000000000000000000000000000000000000000007bffffffffffffffffffffffffffffffffffffffffffffffffffffffff1916827bffffffffffffffffffffffffffffffffffffffffffffffffffffffff1916149050919050565b60006002600083815260200190815260200160002060009054906101000a900473ffffffffffffffffffffffffffffffffffffffff169050919050565b80806115f85750600073ffffffffffffffffffffffffffffffffffffffff168273ffffffffffffffffffffffffffffffffffffffff1614155b1561172c57600061160884610b69565b9050600073ffffffffffffffffffffffffffffffffffffffff168373ffffffffffffffffffffffffffffffffffffffff161415801561167357508273ffffffffffffffffffffffffffffffffffffffff168173ffffffffffffffffffffffffffffffffffffffff1614155b8015611686575061168481846109f3565b155b156116c857826040517fa9fbf51f0000000000000000000000000000000000000000000000000000000081526004016116bf9190611ee6565b60405180910390fd5b811561172a57838573ffffffffffffffffffffffffffffffffffffffff168273ffffffffffffffffffffffffffffffffffffffff167f8c5be1e5ebec7d5bd14f71427d1e84f3dd0314c0f7b2291e5b200ac8c7c3b92560405160405180910390a45b505b836004600085815260200190815260200160002060006101000a81548173ffffffffffffffffffffffffffffffffffffffff021916908373ffffffffffffffffffffffffffffffffffffffff16021790555050505050565b61178f838383611990565b61184357600073ffffffffffffffffffffffffffffffffffffffff168373ffffffffffffffffffffffffffffffffffffffff160361180457806040517f7e2732890000000000000000000000000000000000000000000000000000000081526004016117fb9190612030565b60405180910390fd5b81816040517f177e802f00000000000000000000000000000000000000000000000000000000815260040161183a92919061292a565b60405180910390fd5b505050565b611862828260405180602001604052806000815250611a51565b5050565b806006600084815260200190815260200160002090816118869190612aff565b507ff8e1a15aba9398e019f0b49df1a4fde98ee17ae345cb5f6b5e2c27f5033e8ce7826040516118b69190612030565b60405180910390a15050565b6060600060016118d184611a75565b01905060008167ffffffffffffffff8111156118f0576118ef612055565b5b6040519080825280601f01601f1916602001820160405280156119225781602001600182028036833780820191505090505b509050600082602001820190505b600115611985578080600190039150507f3031323334353637383961626364656600000000000000000000000000000000600a86061a8153600a858161197957611978612bd1565b5b04945060008503611930575b819350505050919050565b60008073ffffffffffffffffffffffffffffffffffffffff168373ffffffffffffffffffffffffffffffffffffffff1614158015611a4857508273ffffffffffffffffffffffffffffffffffffffff168473ffffffffffffffffffffffffffffffffffffffff161480611a095750611a0884846109f3565b5b80611a4757508273ffffffffffffffffffffffffffffffffffffffff16611a2f83610bf1565b73ffffffffffffffffffffffffffffffffffffffff16145b5b90509392505050565b611a5b8383611bc8565b611a70611a66610c2e565b60008585856112e7565b505050565b600080600090507a184f03e93ff9f4daa797ed6e38ed64bf6a1f0100000000000000008310611ad3577a184f03e93ff9f4daa797ed6e38ed64bf6a1f0100000000000000008381611ac957611ac8612bd1565b5b0492506040810190505b6d04ee2d6d415b85acef81000000008310611b10576d04ee2d6d415b85acef81000000008381611b0657611b05612bd1565b5b0492506020810190505b662386f26fc100008310611b3f57662386f26fc100008381611b3557611b34612bd1565b5b0492506010810190505b6305f5e1008310611b68576305f5e1008381611b5e57611b5d612bd1565b5b0492506008810190505b6127108310611b8d576127108381611b8357611b82612bd1565b5b0492506004810190505b60648310611bb05760648381611ba657611ba5612bd1565b5b0492506002810190505b600a8310611bbf576001810190505b80915050919050565b600073ffffffffffffffffffffffffffffffffffffffff168273ffffffffffffffffffffffffffffffffffffffff1603611c3a5760006040517f64a0ae92000000000000000000000000000000000000000000000000000000008152600401611c319190611ee6565b60405180910390fd5b6000611c4883836000610c48565b9050600073ffffffffffffffffffffffffffffffffffffffff168173ffffffffffffffffffffffffffffffffffffffff1614611cbc5760006040517f73c6ac6e000000000000000000000000000000000000000000000000000000008152600401611cb39190611ee6565b60405180910390fd5b505050565b6000604051905090565b600080fd5b600080fd5b60007fffffffff0000000000000000000000000000000000000000000000000000000082169050919050565b611d0a81611cd5565b8114611d1557600080fd5b50565b600081359050611d2781611d01565b92915050565b600060208284031215611d4357611d42611ccb565b5b6000611d5184828501611d18565b91505092915050565b60008115159050919050565b611d6f81611d5a565b82525050565b6000602082019050611d8a6000830184611d66565b92915050565b600081519050919050565b600082825260208201905092915050565b60005b83811015611dca578082015181840152602081019050611daf565b60008484015250505050565b6000601f19601f8301169050919050565b6000611df282611d90565b611dfc8185611d9b565b9350611e0c818560208601611dac565b611e1581611dd6565b840191505092915050565b60006020820190508181036000830152611e3a8184611de7565b905092915050565b6000819050919050565b611e5581611e42565b8114611e6057600080fd5b50565b600081359050611e7281611e4c565b92915050565b600060208284031215611e8e57611e8d611ccb565b5b6000611e9c84828501611e63565b91505092915050565b600073ffffffffffffffffffffffffffffffffffffffff82169050919050565b6000611ed082611ea5565b9050919050565b611ee081611ec5565b82525050565b6000602082019050611efb6000830184611ed7565b92915050565b611f0a81611ec5565b8114611f1557600080fd5b50565b600081359050611f2781611f01565b92915050565b60008060408385031215611f4457611f43611ccb565b5b6000611f5285828601611f18565b9250506020611f6385828601611e63565b9150509250929050565b6000819050919050565b611f8081611f6d565b82525050565b6000602082019050611f9b6000830184611f77565b92915050565b600080600060608486031215611fba57611fb9611ccb565b5b6000611fc886828701611f18565b9350506020611fd986828701611f18565b9250506040611fea86828701611e63565b9150509250925092565b60006020828403121561200a57612009611ccb565b5b600061201884828501611f18565b91505092915050565b61202a81611e42565b82525050565b60006020820190506120456000830184612021565b92915050565b600080fd5b600080fd5b7f4e487b7100000000000000000000000000000000000000000000000000000000600052604160045260246000fd5b61208d82611dd6565b810181811067ffffffffffffffff821117156120ac576120ab612055565b5b80604052505050565b60006120bf611cc1565b90506120cb8282612084565b919050565b600067ffffffffffffffff8211156120eb576120ea612055565b5b6120f482611dd6565b9050602081019050919050565b82818337600083830152505050565b600061212361211e846120d0565b6120b5565b90508281526020810184848401111561213f5761213e612050565b5b61214a848285612101565b509392505050565b600082601f8301126121675761216661204b565b5b8135612177848260208601612110565b91505092915050565b600080fd5b600080fd5b60008083601f8401126121a05761219f61204b565b5b8235905067ffffffffffffffff8111156121bd576121bc612180565b5b6020830191508360208202830111156121d9576121d8612185565b5b9250929050565b60008060008060008060a087890312156121fd576121fc611ccb565b5b600087013567ffffffffffffffff81111561221b5761221a611cd0565b5b61222789828a01612152565b965050602061223889828a01611e63565b955050604087013567ffffffffffffffff81111561225957612258611cd0565b5b61226589828a0161218a565b9450945050606061227889828a01611e63565b925050608061228989828a01611e63565b9150509295509295509295565b61229f81611d5a565b81146122aa57600080fd5b50565b6000813590506122bc81612296565b92915050565b600080604083850312156122d9576122d8611ccb565b5b60006122e785828601611f18565b92505060206122f8858286016122ad565b9150509250929050565b6000806000806080858703121561231c5761231b611ccb565b5b600061232a87828801611f18565b945050602061233b87828801611f18565b935050604061234c87828801611e63565b925050606085013567ffffffffffffffff81111561236d5761236c611cd0565b5b61237987828801612152565b91505092959194509250565b6000806040838503121561239c5761239b611ccb565b5b60006123aa85828601611f18565b92505060206123bb85828601611f18565b9150509250929050565b7f4e487b7100000000000000000000000000000000000000000000000000000000600052602260045260246000fd5b6000600282049050600182168061240c57607f821691505b60208210810361241f5761241e6123c5565b5b50919050565b600060608201905061243a6000830186611ed7565b6124476020830185612021565b6124546040830184611ed7565b949350505050565b7f496e76616c69642070726f6f6600000000000000000000000000000000000000600082015250565b6000612492600d83611d9b565b915061249d8261245c565b602082019050919050565b600060208201905081810360008301526124c181612485565b9050919050565b600081905092915050565b7f7269736330000000000000000000000000000000000000000000000000000000600082015250565b60006125096005836124c8565b9150612514826124d3565b600582019050919050565b600061252a826124fc565b9150819050919050565b600061253f82611d90565b61254981856124c8565b9350612559818560208601611dac565b80840191505092915050565b60006125718285612534565b915061257d8284612534565b91508190509392505050565b600081519050919050565b600081905092915050565b60006125aa82612589565b6125b48185612594565b93506125c4818560208601611dac565b80840191505092915050565b60006125dc828461259f565b915081905092915050565b6000819050919050565b6126026125fd82611f6d565b6125e7565b82525050565b600061261482876125f1565b60208201915061262482866125f1565b60208201915061263482856125f1565b60208201915061264482846125f1565b60208201915081905095945050505050565b600082825260208201905092915050565b600080fd5b82818337505050565b60006126818385612656565b93507f07ffffffffffffffffffffffffffffffffffffffffffffffffffffffffffffff8311156126b4576126b3612667565b5b6020830292506126c583858461266c565b82840190509392505050565b600060a0820190506126e66000830189612021565b6126f36020830188611f77565b8181036040830152612706818688612675565b90506127156060830185612021565b6127226080830184612021565b979650505050505050565b7f7a6b76436f6e74726163742063616c6c206661696c6564000000000000000000600082015250565b6000612763601783611d9b565b915061276e8261272d565b602082019050919050565b6000602082019050818103600083015261279281612756565b9050919050565b6000815190506127a881612296565b92915050565b6000602082840312156127c4576127c3611ccb565b5b60006127d284828501612799565b91505092915050565b7f4e487b7100000000000000000000000000000000000000000000000000000000600052601160045260246000fd5b600061281582611e42565b91507fffffffffffffffffffffffffffffffffffffffffffffffffffffffffffffffff8203612847576128466127db565b5b600182019050919050565b600082825260208201905092915050565b600061286e82612589565b6128788185612852565b9350612888818560208601611dac565b61289181611dd6565b840191505092915050565b60006080820190506128b16000830187611ed7565b6128be6020830186611ed7565b6128cb6040830185612021565b81810360608301526128dd8184612863565b905095945050505050565b6000815190506128f781611d01565b92915050565b60006020828403121561291357612912611ccb565b5b6000612921848285016128e8565b91505092915050565b600060408201905061293f6000830185611ed7565b61294c6020830184612021565b9392505050565b60008190508160005260206000209050919050565b60006020601f8301049050919050565b600082821b905092915050565b6000600883026129b57fffffffffffffffffffffffffffffffffffffffffffffffffffffffffffffffff82612978565b6129bf8683612978565b95508019841693508086168417925050509392505050565b6000819050919050565b60006129fc6129f76129f284611e42565b6129d7565b611e42565b9050919050565b6000819050919050565b612a16836129e1565b612a2a612a2282612a03565b848454612985565b825550505050565b600090565b612a3f612a32565b612a4a818484612a0d565b505050565b5b81811015612a6e57612a63600082612a37565b600181019050612a50565b5050565b601f821115612ab357612a8481612953565b612a8d84612968565b81016020851015612a9c578190505b612ab0612aa885612968565b830182612a4f565b50505b505050565b600082821c905092915050565b6000612ad660001984600802612ab8565b1980831691505092915050565b6000612aef8383612ac5565b9150826002028217905092915050565b612b0882611d90565b67ffffffffffffffff811115612b2157612b20612055565b5b612b2b82546123f4565b612b36828285612a72565b600060209050601f831160018114612b695760008415612b57578287015190505b612b618582612ae3565b865550612bc9565b601f198416612b7786612953565b60005b82811015612b9f57848901518255600182019150602085019450602081019050612b7a565b86831015612bbc5784890151612bb8601f891682612ac5565b8355505b6001600288020188555050505b505050505050565b7f4e487b7100000000000000000000000000000000000000000000000000000000600052601260045260246000fdfea2646970667358221220cbeea804c0a264fe6991e2393a9c58dc16c6276b29362eedf7f8563ec53d62cd64736f6c63430008140033",
  "linkReferences": {},
  "deployedLinkReferences": {}
}